:100000001EC036C035C034C033C032C031C030C06D
:100010002FC02EC02DC02CC02BC02AC029C028C084
:1000200027C026C025C0DCC0EAC0F5C000C10BC196
:1000300016C121C12CC137C142C143C146C11124DF
:100040001FBECFEDCDBF10E0A0E6B0E0E8EFF2E0DC
:1000500002C005900D92AC37B107D9F710E0ACE7BC
:10006000B0E001C01D92A638B107E1F790D042C1BF
:10007000C7CFFC01808190E09BBD8ABD818186BF96
:10008000828190E099BD88BD0895B09919C080E63D
:1000900099E024EF31E0F9013197F1F70197D9F7B1
:1000A000B0990EC020917C002F5F20937C0080913E
:1000B000600090E030E02817390714F010927C00BF
:1000C0000895681708F4682F862F0895809183009B
:1000D00090918400019690938400809383008F3FD9
:1000E000910560F48091820081508093820080911C
:1000F00081008F5F8093810081E00FC021E08D3F00
:10010000920770F481E08093820080918100815099
:1001100080938100809185008F5F8093850015C05A
:100120008B5F924060F4809182008F5F80938200A9
:1001300081E080938100809185008150EECF81E045
:1001400090E09093840080938300809181002091BF
:10015000820030E03BBD2ABD86BF8091850090E0E3
:1001600099BD88BD80917D00813029F486ED96E0AF
:100170000197F1F70895882349F48AE892E024EF83
:1001800031E0F9013197F1F70197D9F708951F93FD
:1001900087B38E6187BB10BE13BE80B7836080BFFC
:1001A00083B7846083BF80B7806880BF1FBC1EBCDC
:1001B0008FB581608FBD8EB588608EBD8EB5846031
:1001C0008EBD8FB5806A8FBD11E080917C00E82FD5
:1001D000F0E0EC30F10508F07DC0ED5EFF4F0994D2
:1001E00080917E0090E09BBD8ABD80917F0086BF9C
:1001F0008091800090E099BD88BDC19A79C0C19876
:100200008091640090E09BBD8ABD8091650086BFAF
:10021000809166006AC0C1988091670090E09BBDA4
:100220008ABD8091680086BF809169005EC0C198D8
:100230008091690090E09BBD8ABD80916A0086BF75
:1002400080916B0052C0C19880916C0090E09BBD82
:100250008ABD80916D0086BF80916E0046C0C198B6
:1002600080916F0090E09BBD8ABD8091700086BF39
:10027000809171003AC0C1988091720090E09BBD5E
:100280008ABD8091730086BF809174002EC0C19892
:100290008091750090E09BBD8ABD8091760086BFFD
:1002A0008091770022C0C1988091780090E09BBD3A
:1002B0008ABD8091790086BF80917A0016C0C1986E
:1002C0000AC0C19810937D0003C0C19810927D00B0
:1002D000FDDE0EC0C19A80917E0090E09BBD8ABD7C
:1002E00080917F0086BF8091800090E099BD88BD9D
:0802F000CCDE6BCFF894FFCFC8
:1002F8000CFFFFFFFF000000FF0000FF8C1E00FF47
:0C030800FF00F08ECB8B008B33CCCC00C0
:00000001FF
